:020000040800F2
:1000000000000320F11D0008411C0008431C0008EB
:10001000451C0008471C0008491C0008000000009F
:100020000000000000000000000000004B1C000861
:100030004D1C0008000000004F1C0008511C000867
:10004000411E0008411E0008411E0008411E000814
:10005000411E0008411E0008411E0008411E000804
:10006000411E0008411E0008411E0008411E0008F4
:10007000411E0008411E0008411E0008411E0008E4
:10008000411E0008411E0008411E0008411E0008D4
:10009000411E0008411E0008411E0008411E0008C4
:1000A000411E0008411E0008411E0008411E0008B4
:1000B000411E0008411E0008411E0008411E0008A4
:1000C000411E0008411E0008411E0008411E000894
:1000D000411E0008411E0008551C0008411E000872
:1000E000411E0008411E0008411E0008411E000874
:1000F000411E0008411E0008411E0008411E000864
:10010000411E0008411E0008411E0008411E000853
:10011000411E0008411E0008411E0008411E000843
:10012000411E0008411E0008411E0008411E000833
:10013000411E0008411E0008411E0008411E000823
:10014000411E0008411E0008411E0008411E000813
:10015000411E0008411E0008411E0008411E000803
:10016000411E0008411E0008411E0008411E0008F3
:10017000411E0008411E0008411E0008000000004A
:10018000411E0008411E0008411E0008411E0008D3
:10019000411E0008411E0008411E0008411E0008C3
:0C01A000411E0008411E0008411E00081E
:1001B00010B5054C237833B9044B13B10448AFF3A1
:1001C00000800123237010BD70000020000000009B
:1001D0000431000808B5034B1BB103490348AFF3D2
:1001E000008008BD000000007400002004310008F9
:1001F00001F0FF01102A2BDB10F0070F08D010F8D8
:10020000013B013A8B422DD010F0070F42B3F6D1DB
:10021000F0B441EA012141EA014122F007047FF0F4
:1002200000070023F0E80256083C85EA010586EA4B
:10023000010685FA47F5A3FA87F586FA47F6A5FA87
:1002400087F68EB9EED1F0BC01F0FF0102F0070293
:1002500032B110F8013B013A83EA010313B1F8D13E
:100260000020704701387047002D06BF354603381F
:10027000073815F0010F07D1013015F4807F02BF58
:10028000013015F4C03F0130F0BC0138704700BFA9
:1002900053B94AB9002908BF00281CBF4FF0FF31ED
:1002A0004FF0FF3000F07AB9ADF1080C6DE904CEE3
:1002B00000F006F8DDF804E0DDE9022304B0704741
:1002C0002DE9F0478C460D460446089E002B51D17F
:1002D0008A4217466DD9B2FA82FEBEF1000F0BD0EA
:1002E000CEF1200C01FA0EF520FA0CFC02FA0EF702
:1002F0004CEA050C00FA0EF44FEA174A250CBCFB39
:10030000FAF81FFA87F90AFB18CC45EA0C4508FBF6
:1003100009F3AB420AD9ED1908F1FF3280F02381CD
:10032000AB4240F22081A8F102083D44ED1AA4B28C
:10033000B5FBFAF00AFB105544EA054400FB09F945
:10034000A14509D9E41900F1FF3380F00A81A145E4
:1003500040F2078102383C44A4EB090440EA08401B
:100360000021002E61D024FA0EF400233460736063
:10037000BDE8F0878B4207D9002E54D0002186E8D3
:1003800021000846BDE8F087B3FA83F1002940F068
:100390008E80AB4202D3824200F2FA80841A65EB6F
:1003A00003050120AC46002E3FD086E81010BDE8C2
:1003B000F08712B90127B7FBF2F7B7FA87FEBEF153
:1003C000000F34D1EB1B3A0C1FFA87FC0121B3FB61
:1003D000F2F8250C02FB183345EA03450CFB08F341
:1003E000AB4207D9ED1908F1FF3002D2AB4200F25F
:1003F000D1808046ED1AA3B2B5FBF2F002FB105596
:1004000043EA05440CFB00FCA44507D9E41900F1BC
:10041000FF3302D2A44500F2B8801846A4EB0C04C6
:1004200040EA08409DE731463046BDE8F087CEF10E
:10043000200405FA0EF307FA0EF720FA04F83A0C36
:1004400025FA04F448EA0308B4FBF2F14FEA184530
:1004500002FB11441FFA87FC45EA044501FB0CF33B
:10046000AB4200FA0EF409D9ED1901F1FF3080F02A
:100470008A80AB4240F2878002393D44EB1A1FFA72
:1004800088F5B3FBF2F002FB103345EA034500FBAD
:100490000CF3AB4207D9ED1900F1FF386FD2AB4234
:1004A0006DD902383D44EB1A40EA01418FE7C1F1B2
:1004B000200722FA07F88B4005FA01F448EA030303
:1004C00020FA07FE4FEA134CFD404EEA040EB5FB3E
:1004D000FCF94FEA1E440CFB19551FFA83F844EA55
:1004E000054509FB08F4AC4202FA01F200FA01FAF0
:1004F00008D9ED1809F1FF3043D2AC4241D9A9F136
:1005000002091D442D1B1FFA8EFEB5FBFCF00CFBEF
:1005100010554EEA054400FB08F8A04507D9E41839
:1005200000F1FF3529D2A04527D902381C4440EA02
:100530000940A4EB0804A0FB02894C45C6464D4681
:1005400015D312D056B1BAEB0E0364EB050404FACE
:1005500007F7CB401F43CC40376074600021BDE8F3
:10056000F0871846F8E69046E0E6C245EAD2B8EBD6
:10057000020E69EB03050138E4E72846D7E7404659
:1005800091E78146BEE7014678E702383C4445E7FB
:10059000084608E7A8F102083D442BE7704700BF72
:1005A00038B50E4A0E4B054618784FF47A73B3FBF4
:1005B000F0F31068B0FBF3F000F0AAF8044658B965
:1005C0000F2D09D8024629464FF0FF3000F05EF8A3
:1005D000044B20461D6038BD012038BD08000020B6
:1005E000000000200400002008B50B4B1A6842F4FC
:1005F00000721A601A6842F480621A601A6842F443
:1006000080721A60032000F02FF80020FFF7C8FF67
:1006100001F0FAFA002008BD003C0240034A044BF6
:1006200011681B780B441360704700BF9C000020CA
:1006300000000020014B1868704700BF9C0000209C
:1006400038B50446FFF7F6FF631C1CBF054B1B784B
:10065000054618BFE418FFF7EDFF401B8442FAD8A7
:1006600038BD00BF00000020074AD36823F4E063D0
:100670001B041B0C43F0BF63000243F4003300F47F
:10068000E0600343D360704700ED00E0174B30B5E6
:10069000DC68C4F30224C4F10703251D042B28BF22
:1006A0000423062D4FF0010505FA03F303F1FF3390
:1006B0008CBF033C00241940A14005FA04F4013C1E
:1006C0002240002842EA01024FEA0212ADBF00F1C7
:1006D000604000F00F00064B00F56140B5BFD2B29C
:1006E000D2B21A5480F8002330BD00BF00ED00E004
:1006F00014ED00E0002808DB4209012300F01F0090
:1007000003FA00F0014B43F82200704700E100E0DB
:100710000138B0F1807F0AD2064B074A5860F021B9
:1007200082F823100020072298601A607047012089
:10073000704700BF10E000E000ED00E090F83530B9
:10074000022B03D0802343650120704702680523F4
:1007500080F83530136823F00103136000207047E0
:100760002DE9F04F85B00B68DFF8C4816E4ADFF8E1
:10077000C491019300234FF0010E019C0EFA03FE79
:100780000EEA0406B64540F0B6804C6824F0100727
:10079000022F16D14FEAD30A00EB8A0A03F0070BA7
:1007A000DAF820504FEA8B0B4FF00F0C0CFA0BFCD1
:1007B00025EA0C0C0D6905FA0BF545EA0C05CAF89B
:1007C00020504FEA430A0325D0F800B005FA0AF595
:1007D000ED4304F0030C0BEA050B0CFA0AFC013F95
:1007E0004CEA0B0C012FC0F800C011D8876807EA4B
:1007F000050BCF6807FA0AFC4CEA0B0787604768CD
:1008000027EA0E0EC4F300179F4047EA0E07476021
:10081000C7683D408F6807FA0AF73D43C560E500A9
:1008200069D54FF0000BCDF80CB0D8F844703F4DAF
:1008300047F48047C8F84470D8F8447007F48047FC
:100840000397039F23F0030707F1804707F59C37C1
:1008500003F0030CD7F808A04FEA8C0C4FF00F0EF2
:100860000EFA0CFEA8422AEA0E0E4BD005F5806562
:10087000A84249D005F58065A84247D005F58065B6
:10088000A84245D005F58065A84243D0484543D0ED
:1008900005F50065A84241D005F58065A8423FD026
:1008A00005F58065A8423DD005F58065A84214BFD6
:1008B0000A25092505FA0CF545EA0E05BD601568FF
:1008C000F74314F4803F0CBF3D4035431560556835
:1008D00014F4003F0CBF3D4035435560956814F457
:1008E000801F0CBF3D4035439560D568A40254BFBE
:1008F0003D403543D5600133102B7FF43CAF05B04C
:10090000BDE8F08F5D46D5E70125D3E70225D1E7A5
:100910000325CFE70425CDE70525CBE70625C9E765
:100920000725C7E70825C5E7003C01400000024055
:1009300000380240001402400AB181617047090486
:10094000FBE7000037B500230193184B184C1A6CD5
:1009500042F080521A641B6C03F080530193019B98
:10096000144B01221A60FFF765FE05466368DA033F
:100970000BD5114B0E4C01221A60FFF75BFE0546AA
:1009800063689B030AD5002006E0FFF753FE401B77
:10099000B0F57A7FEAD9032003B030BDFFF74AFEF5
:1009A000401BB0F57A7FEBD9F5E700BF0038024075
:1009B0000070004040000E4244000E422DE9F34119
:1009C000044618B9012002B0BDE8F0810368DD07D4
:1009D00010D42368980758D423681A0700F19A8026
:1009E00023685B0700F1B880A269002A40F01981F2
:1009F0000020E8E7A64B9A6802F00C02042A07D010
:100A00009A6802F00C02082A0AD15B68590207D5DD
:100A10009F4B1B689A03DCD56368002BD9D1D1E7C3
:100A200063689B4DB3F5803F11D12B6843F480334D
:100A30002B60FFF7FFFD964D06462B689B03C8D43D
:100A4000FFF7F8FD801B6428F7D90320BBE7B3F557
:100A5000A02F04D12B6843F480232B60E5E72A689C
:100A600022F480322A602A6822F480222A60002B35
:100A7000DFD1FFF7DFFD06462B689F03A9D5FFF7FF
:100A8000D9FD801B6428F7D9DFE7814B9A6812F003
:100A90000C0F07D09A6802F00C02082A11D15B688B
:100AA0005E020ED47A4B1A68950702D5E268012AD5
:100AB00088D11A68216922F0F80242EAC1021A605C
:100AC0008AE7E268734BB2B101221A60FFF7B2FD08
:100AD0006F4D06462B68980707D52B68226923F0CF
:100AE000F80343EAC2032B6076E7FFF7A3FD801B00
:100AF0000228EFD9A9E71A60FFF79CFD644D06466E
:100B00002B6899077FF568AFFFF794FD801B0228DB
:100B1000F6D99AE76269604B7AB101221A60FFF751
:100B200089FD5B4D06466B6F9F073FF559AFFFF799
:100B300081FD801B0228F6D987E71A60FFF77AFD4E
:100B4000534D06466B6F98077FF54AAFFFF772FD6E
:100B5000801B0228F6D978E74D4B1A6C12F08052B0
:100B600028D101921A6C42F080521A641B6C03F077
:100B700080530193019B0126484D2B68D9051BD555
:100B8000A368434D012B27D12B6F43F001032B6743
:100B9000FFF750FD3E4D074641F288382B6F9B070B
:100BA00039D5002E3FF420AF394A136C23F080531F
:100BB000136419E70026DFE72B6843F480732B608A
:100BC000FFF738FD07462B68DA05D9D4FFF732FD69
:100BD000C01B0228F7D938E7052B04D12B6F43F04F
:100BE00004032B67D0E72A6F22F001022A672A6FDD
:100BF00022F004022A67002BCAD1FFF71BFD41F245
:100C0000883807462B6F9807CBD5FFF713FDC01B1D
:100C10004045F7D919E7FFF70DFDC01B4045BDD989
:100C200013E71B4DAB6803F00C03082B3FF4CAAE6F
:100C30001B4E0023022A336034D1FFF7FBFC07462A
:100C40002B6899011ED4226AE3691343626A43EA5E
:100C50008213E26A43EA0263A26A0D4C5208013A27
:100C600043EA02436B6001233360FFF7E3FC054670
:100C700023689A013FF5BCAEFFF7DCFC401B02285D
:100C8000F6D9E2E6FFF7D6FCC01B0228D8D9DCE68D
:100C90000038024000004742800E4742007000408A
:100CA00060004742FFF7C6FC04462B689B017FF5B6
:100CB0009FAEFFF7BFFC001B0228F6D9C5E600BFB8
:100CC000134908B58B6803F00C03042B03D0082BE1
:100CD00003D0104808BD104808BD4A684B684968F1
:100CE00013F4800314BF0C480A48C1F3881118BFDD
:100CF000002302F03F02A1FB0001FFF7C9FA044BF9
:100D00005B68C3F3014301335B00B0FBF3F008BD44
:100D1000003802400024F40040787D012DE9F041C4
:100D20000D46044610B90120BDE8F081444B1A6815
:100D300002F00F028A4228D321688F072DD4C807FA
:100D400040D43F4B1A6802F00F02954266D32268E6
:100D500051076CD4130707D53A4A2169936823F4E5
:100D6000604343EAC1039360FFF7AAFF354B364A5D
:100D70009B68C3F30313D35CD840344B1860002046
:100D8000FFF70EFC0020BDE8F081CAB21A701B68A4
:100D900003F00F039942C6D1CEE72A4B11F0040F9E
:100DA0001EBF9A6842F4E0529A600E0742BF9A68EA
:100DB00042F460429A609A68A06822F0F00202430E
:100DC0009A60BCE762681F4B012A1DD11B6813F4AF
:100DD000003FA8D01B4EB36823F003031343B36056
:100DE000FFF728FC41F288380746B368626803F0D1
:100DF0000C03B3EB820FA4D0FFF71CFCC01B4045D3
:100E0000F3D90320BDE8F081911E01291B6802D8A7
:100E100013F0007FDDE713F0020FDAE7EAB21A7091
:100E20001B6803F00F039D427FF47DAF8FE70549F8
:100E3000E0688B6823F4E05303438B608AE700BFCC
:100E4000003C0240003802408931000808000020C0
:100E5000044B054A9B68C3F38223D35C034A1068A2
:100E6000D84070470038024099310008080000203F
:100E7000044B054A9B68C3F34233D35C034A1068B2
:100E8000D84070470038024099310008080000201F
:100E900070B504460D4616462368986810F0800029
:100EA00000D170BD6A1CF8D0FFF7C4FB801B8542DF
:100EB000F2D823685A6822F0E0025A606268B2F5FC
:100EC000827F0AD1A268B2F5004F02D0B2F5806FDE
:100ED00003D11A6822F040021A60A26AB2F5005FDC
:100EE00007D11A6822F400521A601A6842F40052BC
:100EF0001A60012384F85130002384F85030032015
:100F000070BD10B50446FFF7C3FF20B1636D43F019
:100F100020036365032010BD10B50446002836D0B9
:100F20000023836290F8513003F0FF021BB980F870
:100F3000502000F033FE2168A068A269022384F8E3
:100F400051300B6823F040030B6063680343E06893
:100F500003432069034360690343E0690343206A54
:100F60000343A06A034302F4007003430B60120CB6
:100F7000636A02F004021A434A60CB6923F40063F7
:100F8000CB6100200123606584F8513010BD012041
:100F900010BD2DE9F7431E4690F850300A9F012BF3
:100FA00004460D46914600F0E280012380F850305F
:100FB000FFF740FB94F851306168DBB2012B8046AB
:100FC0000AD0B1F5827F40F0D080A068002840F0C0
:100FD000CC80042B40F0C980002D00F0C480B9F112
:100FE000000F00F0C080002E00F0BD8094F851305A
:100FF000C4F83890042B1CBF052384F8513000231B
:101000006365236463642368E687E6861A68A687B7
:10101000500658BF1A68256358BF42F04002A686A2
:1010200058BF1A60E268B2F5006F58D109B1012EBD
:1010300007D135F8022BDA60E38E2563013B9BB2C2
:10104000E3860125E38E9BB2ABB9E38F9BB293B9E4
:10105000424639462046FFF754FF002840F0818081
:10106000A368002B32D123680190DA6801929B6853
:101070000193019B2AE02268936899070DD5E38EBE
:101080009BB253B14DB1236B33F8021BD160236384
:10109000E38E013B9BB2E38600259368DB070CD50A
:1010A000E38F9BB24BB1A36BD26823F8022BA363EF
:1010B000E38F013B9BB2E3870125FFF7BBFAA0EB6F
:1010C00008008742BED87E1CBCD00320012384F8D0
:1010D0005130002384F8503003B0BDE8F08309B1EB
:1010E000012E08D12A781A73236B01332363E38E10
:1010F000013B9BB2E3860125E38E9BB21BB9E38FD4
:101100009BB2002BA4D02268936898070ED5E38E7B
:101110009BB25BB155B1236B1B781373236B013307
:101120002363E38E013B9BB2E3860025226893682C
:10113000D9070DD5E38F9BB253B1A36BD2681A7058
:10114000A36B0133A363E38F013B9BB2E3870125CC
:10115000FFF770FAA0EB08008742CDD87B1CCBD0FC
:10116000B3E7202363650120B0E70220AEE7022049
:10117000B2E70368DA6822F49072DA605A6922F002
:1011800001025A61202380F83A3070472DE9F04778
:101190000668C2683369C16923F44053134333615D
:1011A000044683680069F2680343606922F41642CA
:1011B000034322F00C020B431343F3607369A269EB
:1011C00023F440731343B1F5004F73617A4B7CD124
:1011D0009E4203D003F580639E4244D1FFF748FE50
:1011E000192505FB00F360684FF064094000B3FB6C
:1011F000F0F3B3FBF9F34FEA0318FFF739FE636826
:1012000068435B00B0FBF3F7FFF732FE63686843A7
:101210005B00B0FBF3F3B3FBF9F309FB1373DB00E3
:101220003233B3FBF9F35B0003F4F877FFF720FEEA
:10123000626868435200B0FBF2FAFFF719FE636878
:1012400068435B00B0FBF3F3B3FBF9F309FB13A3B3
:10125000DB003233B3FBF9F303F0070343443B44B1
:10126000B360BDE8F087FFF7F3FD192505FB00F338
:1012700060684FF064094000B3FBF0F3B3FBF9F38F
:101280004FEA0318FFF7E4FD636868435B00B0FBB7
:10129000F3F7FFF7DDFD636868435B00B0FBF3F332
:1012A000B3FBF9F309FB1373DB003233B3FBF9F340
:1012B0005B0003F4F877FFF7CBFD626868435200E8
:1012C000B0FBF2FAFFF7C4FDB9E79E4202D03B4BF8
:1012D0009E4240D1FFF7CCFD676819254FF06409A5
:1012E00005FB00F3BF00B3FBF7F3B3FBF9F31F01FA
:1012F000FFF7BEFD636868439B00B0FBF3F8FFF7A0
:10130000B7FD636868439B00B0FBF3F3B3FBF9F3ED
:1013100009FB13831B013233B3FBF9F303F0F0082D
:10132000FFF7A6FD626868439200B0FBF2FAFFF790
:101330009FFD636868439B00B0FBF3F3B3FBF9F3D5
:1013400009FB13A31B013233B3FBF9F303F00F03C3
:1013500043EA080383E7FFF77BFD676819254FF031
:10136000640905FB00F3BF00B3FBF7F3B3FBF9F32C
:101370001F01FFF76DFD636868439B00B0FBF3F846
:10138000FFF766FD636868439B00B0FBF3F3B3FBB4
:10139000F9F309FB13831B013233B3FBF9F303F0B9
:1013A000F008FFF755FD626868439200B0FBF2FA5F
:1013B000FFF74EFDBDE700BF0010014000140140E3
:1013C00010B5044640B390F8393003F0FF021BB962
:1013D00080F8382000F0D4FC2268242384F83930C7
:1013E000D36823F40053D3602046FFF7CFFE236871
:1013F0001A6922F490421A615A6922F02A025A614B
:10140000DA6842F40052DA6000202023E06384F8B6
:10141000393084F83A3010BD012010BD90F83930D1
:10142000202B18D1A9B1A2B190F83830012B12D0DD
:10143000C2840162828400230168C363212280F890
:101440003920CA6880F8383042F08002CA601846F5
:10145000704701207047022070477047704790F82E
:101460003A30222B10B536D1836801690268B3F592
:10147000805F836A23D15268E9B9C2F3080223F876
:10148000022B8362C48D013CA4B2C4858CB903686D
:10149000DA6822F02002DA60DA6822F48072DA6018
:1014A0005A6922F001025A61202380F83A30FFF78E
:1014B000D5FF002010BDD2B223F8012BE1E721B9FE
:1014C000591C526881621A70DCE75268591C8162AB
:1014D00002F07F02F7E7022010BD704703681A6828
:1014E000D96870B5160704465D6907D196065AD5C6
:1014F0008D0658D5BDE87040FFF7B1BF15F0010566
:1015000002D111F4907F4ED0D30705D5CE0542BF4E
:10151000E36B43F00103E363500704D51DB1E36BB4
:1015200043F00203E363930704D51DB1E36B43F07B
:101530000403E363160704D51DB1E36B43F008030E
:10154000E363E36B002B66D0950604D5880602D5CD
:101550002046FFF784FF23685D69E26B1107204690
:1015600002D415F040051AD0FFF703FE23685A692C
:10157000520610D55A69606B22F040025A6150B190
:10158000254B0365FFF7DAF8002844D0606BBDE80F
:101590007040036D18472046FFF79FFF70BDFFF7AF
:1015A0009CFFE56370BD160627D50D0625D594F87A
:1015B0003920212A2FD1A268B2F5805F226A17D183
:1015C0001188C1F308015960216979B90232226298
:1015D000E28C013A92B2E284EAB9DA6822F080023F
:1015E000DA60DA6842F04002DA6070BD0132EEE79C
:1015F000511C216212785A60EAE750060BD54A0660
:1016000009D5DA6822F04002DA60202384F8393004
:101610002046FFF722FF70BD1D16000808B5806B3D
:101620000023C385C384FFF758FF08BD00221021A3
:101630000148FFF781B900BF0000024001221021DC
:101640000148FFF779B900BF000002401FB50A2327
:101650008DF80800009303AA012302A90348FFF7AD
:1016600098FC9DF80C0005B05DF804FBA00000207C
:1016700038B505460C46FFF7D9FF2846FFF7E6FFC9
:101680002046FFF7E3FFBDE83840FFF7D7BF10B5AE
:101690000446FFF7CBFF2046FFF7D8FF0020FFF7F7
:1016A000D5FF0446FFF7CAFF204610BD400000F0FA
:1016B0007E00FFF7DDBF400000F07E0040F08000BC
:1016C000FFF7E5BF38B505460C46FFF7F4FF40EAE3
:1016D0000401C9B22846BDE83840FFF7E7BF38B576
:1016E00005460C46FFF7E7FF20EA0401C9B2284689
:1016F000BDE83840FFF7DABF2DE9F84F0C288146E6
:101700000F4692461E46DDF828803ED00E283FD078
:1017100000252C4644F080010420FFF7A9FF80211A
:101720000420FFF7DCFF80210A20FFF7CBFF002118
:101730000220FFF79DFFBB461FFA8AFAABEB0703B7
:101740009BB29A4527D849460220FFF791FFB9F18D
:101750000C0F03D180210D20FFF7B4FF4FF4FA677F
:1017600045F0010A8820FFF792FF013FBFB205460E
:1017700017B110EA0A0FF5D080210D20FFF7AFFF57
:101780007FB902252846BDE8F88F30257724C1E7C8
:1017900010251224BEE71BF8011B1220FFF768FF7B
:1017A000CCE78C20FFF773FF10F01B0FE9D104F09A
:1017B0000104B9F10C0F05EA0405E3D19420FFF709
:1017C00066FF04469820FFF762FF10F007001BBF7A
:1017D00004F1FF3300EBC300E300A8F8000008BFEA
:1017E000A8F800307CB1102C28BF1024E4B2374692
:1017F000A4B2BB1B9BB29C42C4D99220FFF747FF07
:1018000007F8010BF5E70124F1E730B50C4685B088
:10181000054607211A20FFF72BFF0DF10E03009359
:1018200025702346012221460C20FFF765FF30B9C1
:10183000BDF80E30102B18BF022005B030BD0220BD
:10184000FBE730B50021044685B01A20FFF710FFF2
:1018500093232370202363700DF10E030093022263
:10186000234621460C20FFF747FF60B9621EE11CAA
:10187000034612F8015F8A4283EA0503F9D122790F
:101880009A4218BF022005B030BDF8B504460E4696
:10189000052004211746FFF722FF80210A20FFF7C9
:1018A00011FF013E651E3444A54216D103210220DA
:1018B000FFF7DEFEFF248A20013CFFF7E8FE14F06C
:1018C000FF0401D04307F6D5C420FFF7E0FE3870CF
:1018D000C220FFF7DCFE7870F8BD15F8011F12205A
:1018E000FFF7C6FEE0E70F210220FFF7C1BE08B5F3
:1018F000A820FFF7CCFE830705D103211420BDE803
:101900000840FFF7DFBE08BD08B5FFF7ECFF8D21EB
:101910005420FFF7ADFE3E215620FFF7A9FE1E2101
:101920005A20FFF7A5FE00215820FFF7A1FE7021E5
:101930004C20FFF79DFE40212A20FFF799FE3D2114
:101940002220FFF795FEBDE80840FFF7D0BF1FB586
:1019500050238DF80C300DF10E02002303A8022154
:101960008DF80D30FFF791FF0DF10A03009303ABE3
:10197000042219460C20FFF7BFFE05B05DF804FBFA
:1019800038B5014605462620FFF73FFF044618B943
:101990002846FFF756FF0446FFF7D9FF204638BD1B
:1019A0007047000030B587B01422002101A800F074
:1019B00073FA00240E4B00941A6B0E4D42F0010294
:1019C0001A631B6B03F00103009322462846102183
:1019D000009BFEF7B1FF1023019301A901232846C4
:1019E000029303930494FEF7BBFE07B030BD00BF23
:1019F000003802400000024010B594B030220021AF
:101A000008A800F049FA1422002103A800F044FAC3
:101A10000023204A0193116C41F080511164126C33
:101A200002F080520192019A1B4A0293116841F41C
:101A30004041116012680F9302F440420823029261
:101A4000029A10930122B42302240B9211931022C4
:101A5000042308A808940C920E9412941393FEF792
:101A6000ADFF00B1FEE7FEF76DFF00B1FEE70F230B
:101A700003934FF4A0530590069305214FF4805330
:101A800003A804940793FFF749F900B1FEE714B0E7
:101A900010BD00BF003802400070004007B5FEF7DF
:101AA000A3FDFFF7A9FFFFF77DFF00F055F800F059
:101AB0004BF9FFF775FF002211462620FEF7E6FDE1
:101AC0002620FEF717FEFFF71FFF1948194C1A4D85
:101AD0001A4E00F0E9F91A4800F0E6F91548FFF748
:101AE0004FFFE0B9E078A37862782178009015483C
:101AF00000F0DAF9E1780191A17822780091637819
:101B00001049114800F04CFA82B20F490F482A8060
:101B1000FFF784FC4FF47A70FEF792FDDEE7304663
:101B200000F036FA0A49084800F05EFA1422ECE7A1
:101B30001C3100082A0100208C00002060310008C0
:101B40002B31000847310008F80000203001002048
:101B500074310008FEE7000008B50E480E4B4FF444
:101B6000827E4FF4007280E8084000238360C360E7
:101B700003614361826103621822436283620A2324
:101B8000C261C362FFF7C8F918B1BDE80840FFF7AA
:101B9000E1BF08BDA00000200030014010B50446A0
:101BA00088B01422002103A800F076F92268144BB3
:101BB0009A4222D103F58433002101915A6C1148D5
:101BC00042F480525A645A6C02F480520192019A93
:101BD00002911A6B42F001021A631B6B03F00103BE
:101BE0000293029BE02303930223049303230693AF
:101BF00003A905230793FEF7B3FD08B010BD00BF8E
:101C0000003001400000024082B00C4B00210091E6
:101C10005A6C42F480425A645A6C02F48042009238
:101C2000009A01911A6C42F080521A641B6C03F006
:101C300080530193019B02B0704700BF00380240FF
:101C40007047FEE7FEE7FEE7FEE770477047704724
:101C5000FEF7E4BC0148FFF741BC00BF30010020A3
:101C600070B50E4615460C46A31B9D4201DC284666
:101C700070BDAFF3008004F8010BF5E710B5002349
:101C80004FF06044934201DB104610BDD4F8800E43
:101C9000C00703D5D4F8000EC00702D40133F1E722
:101CA00000BF20680028FBD0C85C2070F6E7000069
:101CB00008B50A4B1968024609B90949196018683C
:101CC000694602448A4206D900F0BCF80C2303603E
:101CD0004FF0FF3008BD1A6008BD00BF9000002023
:101CE000740100204FF0FF3070474FF400534B60F9
:101CF0000020704701207047002070470F49D1F83D
:101D0000883043F47003C1F888300D4B1A68002006
:101D100042F001021A6098601A6822F0847222F47C
:101D200080321A60074A5A601A6822F480221A60C8
:101D3000D8604FF000638B60704700BF00ED00E09B
:101D4000003802401030002408B50B480B4B4FF40C
:101D5000E13E80E808400C2200238360C3600361F9
:101D600042618361C361FFF72BFB18B1BDE80840F6
:101D7000FFF7F0BE08BD00BF300100200044004066
:101D800010B5044688B01422002103A800F084F89E
:101D90002268154B9A4224D103F5FA3300210191B0
:101DA0001A6C124842F400321A641A6C02F40032BF
:101DB0000192019A02911A6B42F001021A631B6BA5
:101DC00003F001030293029B0C2303930223049369
:101DD000012305930323069303A907230793FEF723
:101DE000BFFC08B010BD00BF00440040000002402E
:101DF000DFF834D0002103E00C4B5B584350043132
:101E00000B480C4B42189A42F6D30B4A02E00023CF
:101E100042F8043B094B9A42F9D3FFF76FFF00F0F9
:101E200017F8FFF73BFE7047000003204C32000814
:101E300000000020700000207000002074010020CD
:101E4000FEE70000014B1868704700BF0C0000203F
:101E500070B50D4E0D4CA41BA4100025A54209D150
:101E60000B4E0C4C01F04EF9A41BA4100025A5420A
:101E700005D170BD56F8253098470135EEE756F884
:101E8000253098470135F2E7443200084432000813
:101E9000443200084832000802440346934200D10D
:101EA000704703F8011BF9E70FB40A4B13B51C6820
:101EB00024B1A36913B9204600F050FA05AB049A87
:101EC000A1680193204600F05DFD02B0BDE810401E
:101ED00004B070470C00002070B50E46054618B1DE
:101EE00083690BB900F03AFAAB69AC6813B92846BC
:101EF00000F034FA234B9C4217D16C68A3891B076E
:101F00001DD52369DBB1013EA36816F8011F013B13
:101F1000A360E9B9002B2EDA22460A21284600F0F8
:101F20006BF8013011D00A2070BD174B9C4201D1D3
:101F3000AC68E3E7154B9C4208BFEC68DEE721463E
:101F4000284600F0ABF80028DDD04FF0FF3070BD20
:101F5000002B04DAA269934206DB0A2904D0236825
:101F60005A1C22601970CFE72246284600F044F838
:101F70000130C9D1E9E723680A205A1C2260187091
:101F800070BD00BFC8310008E8310008A831000862
:101F9000024B01461868FFF79FBF00BF0C000020EE
:101FA0000EB400B59CB04FF402711DABADF8141027
:101FB000029006906FF000410A48049107914FF695
:101FC000FF7153F8042BADF816100068019302A9B5
:101FD00000F0BAFB029B00221A701CB05DF804EB03
:101FE00003B070470C000020034611F8012B03F8E2
:101FF000012B002AF9D17047F8B50E461446054664
:1020000018B183690BB900F0A9F9214B9C422AD180
:102010006C68A369A360A3891A072ED5236963B3EB
:1020200023692068C01A6369F6B29842374604DB18
:102030002146284600F028F928BBA368013BA3608D
:1020400023685A1C22601E7063690130984204D0D4
:10205000A389DB0719D50A2E17D12146284600F09F
:1020600013F990B10FE00B4B9C4201D1AC68D0E763
:10207000094B9C4208BFEC68CBE72146284600F09C
:102080000DF80028CCD04FF0FF373846F8BD00BF20
:10209000C8310008E8310008A8310008324B70B59B
:1020A0001D6806460C4625B1AB6913B9284600F0F9
:1020B00055F92E4B9C420FD16C68B4F90C309AB292
:1020C00015072CD4D00611D40922326043F0400306
:1020D000A3814FF0FF3070BD254B9C4201D1AC680D
:1020E000EBE7244B9C4208BFEC68E6E7510712D5AA
:1020F000616B41B104F14403994202D0304600F0D3
:102100001BFA00236363A38923F02403A381002324
:10211000636023692360A38943F00803A3812369D3
:102120004BB9A38903F42073B3F5007F03D0214694
:10213000304600F0C1F9A28912F001030CD000234F
:10214000A36063695B42A361236953B9B4F90C309E
:1021500013F08000BAD170BD920758BF6369A360C5
:10216000F2E70020F7E700BF0C000020C8310008AC
:10217000E8310008A83100088A892DE9F0410546B8
:1021800010070C465AD44B68002B05DC0B6C002B57
:1021900002DC0020BDE8F081E66A002EF9D00023C1
:1021A00012F480522F682B6033D0606DA3895A07D8
:1021B00005D56368C01A636B0BB1236CC01A00238A
:1021C0000246E66A216A2846B047431CA38906D125
:1021D00029681D294BD82B4ACA40D60747D500226B
:1021E0006260D9042269226004D5421C01D12B68A7
:1021F00003B96065616B2F600029CAD004F1440304
:10220000994202D0284600F097F900206063BDE8AB
:10221000F081216A01232846B047411CC6D12B68B2
:10222000002BC3D01D2B01D0162B01D12F60B0E79E
:10223000A38943F04003A381BDE8F0810F69002F1B
:10224000A7D093070E6808BF4B690F6018BF002323
:10225000A6EB07088B60B8F1000F9ADD43463A46BB
:10226000216AA66A2846B047002807DCA38943F004
:102270004003A3814FF0FF30BDE8F0810744A8EB95
:102280000008E8E70100402038B50B6905460C4618
:10229000DBB118B183690BB900F060F80C4B9C42BC
:1022A00009D16C68B4F90C307BB121462846BDE8F1
:1022B0003840FFF761BF074B9C4201D1AC68F1E7A2
:1022C000054B9C4208BFEC68ECE7002038BD00BF1E
:1022D000C8310008E8310008A8310008014900F0C1
:1022E000A9B800BF89220008002310B50446036086
:1022F0004360836081814366C2810361436183617E
:10230000194608225C30FFF7C7FD054B6362054B99
:10231000A362054BE362054B2462236310BD00BF3B
:10232000FD2E00081F2F0008572F00087B2F0008E4
:1023300070B54A1E682555430E4605F1740100F03C
:1023400049F9044640B1002180E842000C30A06009
:1023500005F16802FFF7A0FD204670BD836910B546
:10236000044633BB8364C3640365124B124A1B6883
:102370008262984204BF0123836100F01FF860600D
:10238000204600F01BF8A060204600F017F800225D
:10239000E06004216068FFF7A7FF01220921A0681F
:1023A000FFF7A2FF02221221E068FFF79DFF012341
:1023B000A36110BDA4310008DD220008F8B51C4B54
:1023C0001E68B369074613B93046FFF7C7FF4836A2
:1023D000B4687368013B03D5336833B13668F7E7F7
:1023E000B4F90C506DB16834F4E704213846FFF7B6
:1023F0009FFF30600028F1D10C233B60044620464B
:10240000F8BD4FF6FF73E3810123A3816566256064
:10241000A560656025616561A5610822294604F112
:102420005C00FFF739FD6563A563A564E564E6E735
:10243000A43100082DE9F8438046894600F148049C
:10244000002614B93046BDE8F883A5686768013FE7
:1024500001D52468F5E7AB89012B07D9B5F90E3012
:10246000013303D029464046C84706436835EEE7A6
:1024700070B50E46B1F90E10002990B014461D46F5
:1024800007DA00232B60B3891A0610D44FF4806357
:102490000EE001AA00F098FD0028F2DB029A02F497
:1024A0007042A2F500535A425A412A60EEE7402397
:1024B0000020236010B070BD8B8973B59D07064660
:1024C0000C4607D504F147032360236101236361B0
:1024D00002B070BD01AB6A46FFF7CAFF009905461E
:1024E000304600F077F848B9B4F90C309A05EFD4CB
:1024F00023F0030343F00203A381E3E70D4BB36230
:10250000A389206043F08003A381009B6361019B4A
:1025100020615BB1B4F90E10304600F067FD28B1C0
:10252000A38923F0030343F00103A381A3891D437F
:10253000A581CDE7DD22000838B50546002945D044
:1025400051F8043C0C1F002BB8BFE41800F095FDB7
:102550001F4A1368104633B9636014602846BDE80B
:10256000384000F08BBDA3420CD921686218934219
:1025700004BF1A685B68636004BF5218226004607D
:10258000ECE713465A680AB1A242FAD919685818FA
:10259000A0420BD120680144581882421960DDD155
:1025A000106852685A6001441960D7E702D90C23B9
:1025B0002B60D3E7206821188A4204BF1168526853
:1025C000626004BF091821605C60C7E738BD00BFC6
:1025D0009400002070B5CD1C25F0030508350C2DA6
:1025E00038BF0C25002D064601DBA94203D90C2378
:1025F0003360002070BD00F040FD234A146821467E
:1026000091B9224C23681BB9304600F067FC20606A
:102610002946304600F062FC431C26D10C2333606F
:10262000304600F02BFDE4E70B685B1B1AD40B2B44
:102630000FD90B60CD50CC18304600F01FFD04F1CF
:102640000B00231D20F00700C31A1BD05A42E25092
:1026500070BD8C420DBF63684B686360136018BF28
:102660000C46E9E70C464968CAE7C41C24F0030499
:10267000A04205D0211A304600F030FC0130CDD008
:102680002560D9E770BD00BF9400002098000020AD
:102690002DE9F0478E689E4282460C469146984648
:1026A00035D88A8912F4906F31D0256809696F1A7C
:1026B0006569022305EB450595FBF3F508F1010378
:1026C0003B449D4238BF1D46530531D52946FFF78F
:1026D00081FF064650B90C23CAF80030A38943F0A5
:1026E0004003A3814FF0FF30BDE8F0873A462169EF
:1026F00000F09EFCA38923F4906343F08003A38140
:10270000266165613E44ED1B2660A5604646464550
:1027100028BF464632464946206800F094FCA3682C
:102720009B1BA36023681E4426600020BDE8F08741
:102730002A4600F0A4FC06460028E1D12169504653
:10274000FFF7FAFEC7E700002DE9F04F9DB0804685
:1027500003938B891C060D4616460FD50B696BB982
:102760004021FFF737FF2860286128B90C23C8F8FB
:1027700000304FF0FF30C5E040236B610023099328
:1027800020238DF8293030238DF82A304FF0010BAB
:1027900037463C4614F8013B002B3CD1B7EB060A08
:1027A0000BD05346324629464046FFF771FF0130B1
:1027B00000F0A380099B534409933B78002B00F061
:1027C0009C8000234FF0FF320493079305920693F9
:1027D0008DF853301A93052221785048FDF708FDF3
:1027E000671C049BD8B9D90644BF20228DF853201A
:1027F0001A0744BF2B228DF8532022782A2A16D09C
:10280000079A00210A20274601343B78303B092BE8
:1028100051D9C9B111E0252BC0D02746B9E73F4AAD
:10282000801A0BFA00F0184304903C46D3E7039A51
:10283000111D12680391002A01DB079204E0524245
:1028400043F00203079204933B782E2B0ED17B7842
:102850002A2B07F1010132D1039B1A1D1B68039239
:10286000002BB8BF4FF0FF33023705932C4C39785B
:1028700003222046FDF7BCFC38B14023001B03FABD
:1028800000F0049B034304930137397825488DF801
:10289000281006227E1CFDF7ABFC002835D0224B09
:1028A000FBB9039B073323F0070308330393099B0A
:1028B0004B4409936CE700FB02320121A3E700239C
:1028C000059318460A240F4601313A78303A092A0E
:1028D00003D9002BCAD00590C8E704FB00200123D0
:1028E000F1E703AB00932A46104B04A94046AFF32F
:1028F0000080B0F1FF3F8146D9D1AB895B063FF53F
:1029000038AF09981DB0BDE8F08F03AB00932A469D
:10291000064B04A9404600F0C1F9EAE70832000876
:102920000E32000812320008000000009126000854
:102930009368013B002B10B4936009DA9469A342B9
:1029400002DBCBB20A2B03D15DF8044BFFF754BB7B
:102950001368581C10601970C8B25DF8044B7047BA
:10296000F8B506460F461446D518AC4201D10020F2
:1029700007E03A4614F8011B3046FFF7D9FF431C25
:10298000F3D1F8BD2DE9F04F9DB00C4617460393E7
:10299000064618B183690BB9FFF7E0FC7C4B9C42FB
:1029A00057D17468A38918075DD52369002B5AD0C5
:1029B0000023099320238DF8293030238DF82A3005
:1029C0004FF0010BB846454615F8013B002B55D199
:1029D000B8EB070A0BD053463A4621463046FFF77C
:1029E000BFFF013000F0C480099B5344099398F85D
:1029F0000030002B00F0BC8000234FF0FF32049326
:102A00000793059206938DF853301A93052229787F
:102A10006048FDF7EDFB05F10108049B002831D16A
:102A2000D90644BF20228DF853201A0744BF2B2219
:102A30008DF853202A782A2A2CD0079A00210A20C0
:102A4000A846013598F80030303B092B6DD971B399
:102A500026E0514B9C4201D1B468A3E74F4B9C4206
:102A600008BFF4689EE721463046FFF717FB0028B1
:102A70009ED04FF0FF301DB0BDE8F08F252BA7D0C2
:102A8000A846A0E7434A801A0BFA00F018430490C6
:102A90004546BBE7039A111D12680391002A01DB2A
:102AA000079204E0524243F002030792049398F81D
:102AB00000302E2B10D198F801302A2B08F101019B
:102AC00037D1039B1A1D1B680392002BB8BF4FF030
:102AD000FF3308F102080593314D98F800100322E6
:102AE0002846FDF785FB40B14023401B03FA00F068
:102AF000049B0343049308F1010898F80010294847
:102B00008DF82810062208F10107FDF771FB002857
:102B100034D0254B03BB039B073323F00703083353
:102B20000393099B4B4409934CE700FB02320121BC
:102B300086E70023059318460A258846013198F850
:102B40000020303A092A03D9002BC5D00590C3E7ED
:102B500005FB00200123F0E703AB00932246134B53
:102B600004A93046AFF30080B0F1FF3F8146D8D1D1
:102B7000A3895B063FF57DAF09987CE703AB009323
:102B800022460A4B04A9304600F088F8ECE700BF63
:102B9000C831000808320008E8310008A8310008F0
:102BA0000E320008123200080000000061290008FF
:102BB0002DE9F04791461F468A680B69DDF82080B1
:102BC0009342B8BF1346C9F8003091F84320064637
:102BD0000C4612B10133C9F800302368990642BF90
:102BE000D9F800300233C9F80030256815F0060521
:102BF00007D104F1190AE368D9F800209B1A9D4215
:102C000029DB94F843302268003318BF0123920671
:102C10002ED404F1430239463046C047013021D05A
:102C20002368E568D9F8002003F00603042B08BFE9
:102C3000AD1AA36822690CBF25EAE5750025934209
:102C4000C4BF9B1AED184FF000091A344D451BD133
:102C50000020BDE8F0870123524639463046C04780
:102C6000013003D14FF0FF30BDE8F0870135C2E7F6
:102C7000E1185A1C302081F84300224494F8451092
:102C800082F843100233C4E7012322463946304616
:102C9000C0470130E6D009F10109D7E72DE9F0433B
:102CA00017460A7E85B06E2A984606460C460C9B4F
:102CB00001F1430E00F0BC801AD8632A2ED00AD846
:102CC000002A00F0C880582A00F08A8004F14205EA
:102CD00084F842202AE0642A01D0692AF6D12168CA
:102CE0001A6811F0800F23D0111D1960136827E0B6
:102CF000732A00F0B48008D86F2A2AD0702AE5D150
:102D00000A6842F020020A6003E0752A21D0782A7E
:102D1000DCD1782284F845206E4964E01A6801F11C
:102D20004205111D1960136884F842300123A3E0A5
:102D300011F0400F02F104011960D7D0B2F9003050
:102D4000002B03DA2D225B4284F8432062490A22D9
:102D500017E02068196810F0800F03D0081D186074
:102D60000B6806E010F0400F01F104001860F7D086
:102D70000B8859496F2A14BF0A220822002084F8C0
:102D800043006568A560002DC0F29C80206820F09B
:102D900004002060002B3FD1002D40F09580754647
:102DA000082A0BD12368DA0708D5236962689A429A
:102DB000DEBF302305F8013C05F1FF35AEEB05031E
:102DC0002361CDF800803B4603AA21463046FFF739
:102DD000EFFE013055D14FF0FF3005B0BDE8F08374
:102DE00081F845203C492268186812F0800F00F1F4
:102DF00004051D6001D0036802E05506FBD5038879
:102E0000D00744BF42F0200222601BB9226822F0A2
:102E1000200222601022B1E77546B3FBF2F002FBFC
:102E20001033CB5C05F8013D03460028F5D1B7E728
:102E300008681A68496910F0800F04D0101D1860E6
:102E40001368196007E010F0400F02F104001860E9
:102E50001368F6D01980002323617546B1E71A681C
:102E6000111D19601568626800212846FDF7C0F938
:102E700008B1401B606063682361002384F843301D
:102E80009FE723692A4639463046C0470130A2D021
:102E900023689B0707D5002504F11909E368039A05
:102EA0009B1A9D4205DBE068039B9842B8BF184619
:102EB00093E701234A4639463046C04701308AD05D
:102EC0000135EBE7002BA7D10B7884F8423004F1F1
:102ED000420565E72A3200081932000838B5064C69
:102EE0000023054608462360FEF7E2FE431C02D19C
:102EF000236803B12B6038BD7001002010B50C466B
:102F0000B1F90E1000F0E2F80028ABBF636DA389A1
:102F10001B1823F48053ACBF6365A38110BD2DE95A
:102F2000F0411F468B89DB0505460C46164605D544
:102F300002230022B1F90E1000F068F8A389B4F959
:102F40000E1023F48053A38132463B462846BDE849
:102F5000F04100F017B810B50C46B1F90E1000F0B2
:102F600055F8431CA38915BF606523F4805343F4CF
:102F70008053A38118BFA38110BDB1F90E1000F0DA
:102F800013B8000038B5074C054608461146002224
:102F900022601A46FEF772FE431C02D1236803B179
:102FA0002B6038BD7001002038B5064C0023054663
:102FB00008462360FEF796FE431C02D1236803B146
:102FC0002B6038BD7001002038B5074C0023054642
:102FD000084611462360FEF788FE431C02D1236891
:102FE00003B12B6038BD00BF7001002038B5064C1E
:102FF0000023054608462360FEF77CFE431C02D1F1
:10300000236803B12B6038BD7001002038B5074C30
:10301000054608461146002222601A46FEF76CFE5D
:10302000431C02D1236803B12B6038BD700100201E
:1030300010B5431E0A44914200D110BD11F8014B56
:1030400003F8014FF7E7884210B501EB020303D8FC
:10305000421E99420CD110BD9842F9D28118D21A61
:10306000D34200D110BD13F8014D01F8014DF7E72F
:1030700011F8014B02F8014FEBE770477047F8B5C4
:10308000074614460E4621B91146BDE8F840FFF741
:10309000A1BA22B9FFF750FA25462846F8BD00F03C
:1030A00027F884420FD921463846FFF793FA0546A0
:1030B0000028F2D031462246FFF7BAFF31463846A3
:1030C000FFF73AFAE9E73546E7E7000038B5074C7D
:1030D000054608461146002222601A46FEF7C0FD4A
:1030E000431C02D1236803B12B6038BD700100205E
:1030F00051F8040C0028A0F10400BCBF0B58C01804
:1031000070470000F8B500BFF8BC08BC9E46704789
:0C311000F8B500BFF8BC08BC9E46704734
:10311C004D4652433532325F496E69740A0D005781
:10312C00616974696E6720666F722052464944204B
:10313C00436172642E2E2E210A0D005B25303278ED
:10314C002D253032782D253032782D253032785D92
:10315C00200D0A004E69652077796B7279746F20A7
:10316C006B61727479200D004E69652077796B72F2
:10317C0079746F206B61727479200D0A0000000065
:10318C00000000000001020304060708090000000B
:10319C0000010203040000001000002000000000E9
:1031AC000000000000000000000000000000000013
:1031BC000000000000000000000000000000000003
:1031CC0000000000000000000000000000000000F3
:1031DC0000000000000000000000000000000000E3
:1031EC0000000000000000000000000000000000D3
:1031FC00000000000000000000000000232D302B18
:10320C002000686C4C0065666745464700303132DB
:10321C003334353637383941424344454600303132
:10322C003233343536373839616263646566000091
:08323C0084D0FF7F01000000B7
:04324400D5010008A8
:04324800B1010008C8
:10324C0001000000100000000024F4001000002019
:10325C0000000000C8310008E8310008A83100085F
:10326C000000000000000000000000000000000052
:10327C000000000000000000000000000000000042
:10328C000000000000000000000000000000000032
:10329C000000000000000000000000000000000022
:1032AC000000000000000000000000000000000012
:0400000508001DF1E1
:00000001FF
